:020000040000fa
:080000000001040000000000f3
:020000040000fa
:040008006e03000083
:020000040000fa
:04000c006e0300007f
:020000040000fa
:040010006e0300007b
:020000040000fa
:040014006e03000077
:020000040000fa
:040018006e03000073
:020000040000fa
:04001c006e0300006f
:020000040000fa
:040020006e0300006b
:020000040000fa
:040024006e03000067
:020000040000fa
:040028006e03000063
:020000040000fa
:04002c006e0300005f
:020000040000fa
:040030006e0300005b
:020000040000fa
:040034006e03000057
:020000040000fa
:040038006e03000053
:020000040000fa
:04003c006e0300004f
:020000040000fa
:040040006e0300004b
:020000040000fa
:040044006e03000047
:020000040000fa
:040048006e03000043
:020000040000fa
:04004c006e0300003f
:020000040000fa
:040050006e0300003b
:020000040000fa
:040054006e03000037
:020000040000fa
:040058006e03000033
:020000040000fa
:04005c006e0300002f
:020000040000fa
:040060006e0300002b
:020000040000fa
:040064006e03000027
:020000040000fa
:040068006e03000023
:020000040000fa
:04006c006e0300001f
:020000040000fa
:040070006e0300001b
:020000040000fa
:040074000402000082
:020000040000fa
:040078006e03000013
:020000040000fa
:04007c006e0300000f
:020000040000fa
:040080006e0300000b
:020000040000fa
:040084006e03000007
:020000040000fa
:040088006e03000003
:020000040000fa
:04008c006e030000ff
:020000040000fa
:040090006e030000fb
:020000040000fa
:040094006e030000f7
:020000040000fa
:040098006e030000f3
:020000040000fa
:04009c006e030000ef
:020000040000fa
:0400a0006e030000eb
:020000040000fa
:0400a4006e030000e7
:020000040000fa
:0400a8006e030000e3
:020000040000fa
:0400ac006e030000df
:020000040000fa
:0400b0006e030000db
:020000040000fa
:0400b4006e030000d7
:020000040000fa
:0400b8006e030000d3
:020000040000fa
:0400bc006e030000cf
:020000040000fa
:0400c0006e030000cb
:020000040000fa
:0400c4006e030000c7
:020000040000fa
:0400c8006e030000c3
:020000040000fa
:0400cc006e030000bf
:020000040000fa
:0400d0006e030000bb
:020000040000fa
:0400d4006e030000b7
:020000040000fa
:0400d8006e030000b3
:020000040000fa
:0400dc006e030000af
:020000040000fa
:0400e0006e030000ab
:020000040000fa
:0400e4006e030000a7
:020000040000fa
:0400e8006e030000a3
:020000040000fa
:0400ec006e0300009f
:020000040000fa
:0400f0006e0300009b
:020000040000fa
:0400f4006e03000097
:020000040000fa
:0400f8006e03000093
:020000040000fa
:0400fc006e0300008f
:020000040000fa
:040100006e0300008a
:020000040000fa
:040104006e03000086
:020000040000fa
:040108006e03000082
:020000040000fa
:04010c006e0300007e
:020000040000fa
:040110006e0300007a
:020000040000fa
:040114006e03000076
:020000040000fa
:040118006e03000072
:020000040000fa
:04011c006e0300006e
:020000040000fa
:040120006e0300006a
:020000040000fa
:040124006e03000066
:020000040000fa
:040128006e03000062
:020000040000fa
:04012c006e0300005e
:020000040000fa
:040130006e0300005a
:020000040000fa
:040134006e03000056
:020000040000fa
:040138006e03000052
:020000040000fa
:04013c006e0300004e
:020000040000fa
:040140006e0300004a
:020000040000fa
:040144006e03000046
:020000040000fa
:040148006e03000042
:020000040000fa
:04014c006e0300003e
:020000040000fa
:040150006e0300003a
:020000040000fa
:040154006e03000036
:020000040000fa
:040158006e03000032
:020000040000fa
:04015c006e0300002e
:020000040000fa
:040160006e0300002a
:020000040000fa
:040164006e03000026
:020000040000fa
:040168006e03000022
:020000040000fa
:04016c006e0300001e
:020000040000fa
:040170006e0300001a
:020000040000fa
:040174006e03000016
:020000040000fa
:040178006e03000012
:020000040000fa
:04017c006e0300000e
:020000040000fa
:040180006e0300000a
:020000040000fa
:040184006e03000006
:020000040000fa
:040188006e03000002
:020000040000fa
:04018c006e030000fe
:020000040000fa
:040190006e030000fa
:020000040000fa
:040194006e030000f6
:020000040000fa
:040198006e030000f2
:020000040000fa
:04019c006e030000ee
:020000040000fa
:0401a0006e030000ea
:020000040000fa
:0401a4006e030000e6
:020000040000fa
:0401a8006e030000e2
:020000040000fa
:0401ac006e030000de
:020000040000fa
:0401b0006e030000da
:020000040000fa
:0401b4006e030000d6
:020000040000fa
:0401b8006e030000d2
:020000040000fa
:0401bc006e030000ce
:020000040000fa
:0401c0006e030000ca
:020000040000fa
:0401c4006e030000c6
:020000040000fa
:0401c8006e030000c2
:020000040000fa
:0401cc006e030000be
:020000040000fa
:0401d0006e030000ba
:020000040000fa
:0401d4006e030000b6
:020000040000fa
:0401d8006e030000b2
:020000040000fa
:0401dc006e030000ae
:020000040000fa
:0401e0006e030000aa
:020000040000fa
:0401e4006e030000a6
:020000040000fa
:0401e8006e030000a2
:020000040000fa
:0401ec006e0300009e
:020000040000fa
:0401f0006e0300009a
:020000040000fa
:0401f4006e03000096
:020000040000fa
:0401f8006e03000092
:020000040000fa
:0401fc006e0300008e
:020000040000fa
:10020000cf8020000eff27000e01880000000000b4
:10021000000020000000e000020032000001200089
:1002200020028800140007002e0107000000e000f3
:1002300003003a00004120000100200002003700c6
:100240000000200001002000810f7000010032003a
:1002500014000700000020000000e000020032004f
:100260000000020000000000b003020000000000d7
:100270000040da000000fe004440a90020002000f9
:100280000000e00003003200100020009001880010
:100290004440a800000006008a1f78008b1f7800e9
:1002a00000000600a1028800800478000000eb0036
:1002b0001f003700e284440054a0b4009905ba003e
:1002c000e284440054a0b4009906ba00e2844400d9
:1002d00054a0b4000006eb00476fde00fd07b2003b
:1002e000ae018800636ce10003003a00eaff0700fa
:1002f0000000eb000e003700606ce10008003a00df
:10030000004deb000a05e800020039003420ec0043
:100310000af0a0008b05e900f9ff3e000400370059
:100320006168e100010032000086eb000b0007006d
:1003300019c7ba001905ba000e04e00003003a001c
:100340000a00e000dbff3a0000000600fe07b200f2
:10035000ae0288008a047800f5ff37000cd0a300b5
:10036000e20f4d001c00390089027800354dba00bb
:100370000a05e800020039003420ec000af0a00071
:100380008b05e9000f003200254dba000a05e80090
:10039000020039003420ec000af0a0008b05e900cf
:1003a000080032000c00e0000600320015cdba0053
:1003b0000a05e800020039003420ec000af0a00031
:1003c0008b05e9008984e80054a0b4000b00e0002c
:1003d000e2ff3a00000006009902ba00055d7800cd
:1003e0008b05e900f7ff3200c82ade00055d7800c2
:1003f0008b05e900f3ff32000c00e000f1ff320052
:1004000019ddba00eeff37003600f800809fbe000d
:10041000829fbe00849fbe00869fbe000000fa003f
:1004200050048000680060000000e000a40032007a
:1004300060358000610060000000e0009f00320035
:1004400000358000610060000000e00004003a0018
:1004500000358000610060000000e00097003a0075
:1004600000c8bf000004e00005003200800c8000de
:1004700020408800b60007009b000700b00007007e
:1004800000c8bf000080fb00e20f500021003200d6
:10049000e20f500005003c000000e00008003200c0
:1004a000e10f50000c00320083003700e30f5000d2
:1004b00027003200e40f5000320032007e00370087
:1004c0008d0007009e00070010c0b30000e8b700d1
:1004d0000168ef007800370021408000900820007c
:1004e000808f50000400360021408000c0082000aa
:1004f000808f500004003600950007007a00070046
:100500000068ef006c00370020c0b30000e8b700bf
:10051000690037002140800040042000808f500097
:10052000040036002140800070042000808f5000bd
:1005300004003600860007006b0007000068ef002b
:100540005d00370030c0b30000e8b7005a00370044
:1005500020408000e60f500003003600204080005d
:10056000e90f500004003600790007005e00070024
:100570000068ef005000370040c0b30000e8b7004b
:100580004d0037002140800000022000808f500085
:1005900003003e0020408000e60f500004003e00b3
:1005a0006b000700500007000068ef0042003700b2
:1005b00020408000ef0f50001400360001c8bf003b
:1005c0000080fb007f0110001000200001002000cf
:1005d0000002be00020378000603e90003003300b6
:1005e0000402420085824a00fbff37000401be007e
:1005f0003040800041408000000071008180710027
:1006000030408800414088001e00370001c8bf000c
:100610000080fb007f01100010002000010020007e
:10062000820178008301e9000300330000004000ec
:1006300081804800fbff37000081ea008181ea00e9
:1006400030408000414080000202780003017800c1
:100650008001780001007800030262000000610060
:100660008000eb00c000dd00000020000001be00a3
:100670006120b80000017100818171003240880062
:100680004340880001c8bf000040e80001e8b7000f
:1006900001c8bf00ff4f50000400360010c0b30077
:1006a00002e8b7000068ef000300370030c0b30075
:1006b00000e8b70000000000ac06a9008a60a900ad
:1006c0000080fa004f03be004f02be004f01be0083
:1006d0004f00be003600f900004006000040da007e
:0806e0000000fe00000005000f
:020000040000fa
:1006e8000000fa009021ef000080fa0000000600e8
:1006f8000000fa0095e1a900a10c80000003200089
:1007080001007000a00c88009421a90080d023006b
:10071800900c880041058000f0ff280000806000f0
:1007280000c0a000400588008860a9009860a80063
:100738000080fa00000006000000fa0095e1a80019
:100748000080fa00000006000000fa0095e1a90008
:100758000080fa00000006000000fa006226ef00a0
:100768000080eb00f0348800813c8000f00f2c0002
:1007780000806000803c88006a26ef00a626ef0013
:10078800aa06a800a806a800ac06a9005fe6a8006b
:100798008a60a9009a60a800d5ff07000000000041
:1007a80002c8bf000004e000fdff32000268ef004d
:1007b8000068ef000168ef00304080004140800091
:1007c8004008de00000078003033880000902000e8
:1007d800d10320000200070000000000f0ff3700ee
:020000040000fa
:1007e800f03fb1000180b10006003500ee030900ba
:1007f80000000000403fb1000180b100fbff3d0058
:100808001000b000203fb000020035000080090051
:080818000000000000000600d2
:020000040000fa
:10082000000800000c000000800000000000000034
:020000040000fa
:020000040015e5
:047e3000faffff0056
:020000040000fa
:020000040015e5
:047e3800feffff004a
:020000040000fa
:020000040015e5
:047e40009fffff00a1
:020000040000fa
:020000040015e5
:047e5000dfffff0051
:00000001FF
