:020000040000fa
:080000000001040000000000f3
:020000040000fa
:04000800aa03000047
:020000040000fa
:04000c00aa03000043
:020000040000fa
:04001000aa0300003f
:020000040000fa
:04001400aa0300003b
:020000040000fa
:04001800aa03000037
:020000040000fa
:04001c00aa03000033
:020000040000fa
:04002000aa0300002f
:020000040000fa
:04002400aa0300002b
:020000040000fa
:04002800aa03000027
:020000040000fa
:04002c00aa03000023
:020000040000fa
:04003000aa0300001f
:020000040000fa
:04003400280200009e
:020000040000fa
:04003800aa03000017
:020000040000fa
:04003c00aa03000013
:020000040000fa
:04004000aa0300000f
:020000040000fa
:0400440004020000b2
:020000040000fa
:04004800aa03000007
:020000040000fa
:04004c00aa03000003
:020000040000fa
:04005000aa030000ff
:020000040000fa
:04005400aa030000fb
:020000040000fa
:04005800aa030000f7
:020000040000fa
:04005c00aa030000f3
:020000040000fa
:04006000aa030000ef
:020000040000fa
:04006400aa030000eb
:020000040000fa
:04006800aa030000e7
:020000040000fa
:04006c00aa030000e3
:020000040000fa
:04007000aa030000df
:020000040000fa
:040074004202000044
:020000040000fa
:04007800aa030000d7
:020000040000fa
:04007c00aa030000d3
:020000040000fa
:04008000aa030000cf
:020000040000fa
:04008400aa030000cb
:020000040000fa
:04008800aa030000c7
:020000040000fa
:04008c00aa030000c3
:020000040000fa
:04009000aa030000bf
:020000040000fa
:04009400aa030000bb
:020000040000fa
:04009800aa030000b7
:020000040000fa
:04009c00aa030000b3
:020000040000fa
:0400a000aa030000af
:020000040000fa
:0400a400aa030000ab
:020000040000fa
:0400a800aa030000a7
:020000040000fa
:0400ac00aa030000a3
:020000040000fa
:0400b000aa0300009f
:020000040000fa
:0400b400aa0300009b
:020000040000fa
:0400b800aa03000097
:020000040000fa
:0400bc00aa03000093
:020000040000fa
:0400c000aa0300008f
:020000040000fa
:0400c400aa0300008b
:020000040000fa
:0400c800aa03000087
:020000040000fa
:0400cc00aa03000083
:020000040000fa
:0400d000aa0300007f
:020000040000fa
:0400d400aa0300007b
:020000040000fa
:0400d800aa03000077
:020000040000fa
:0400dc00aa03000073
:020000040000fa
:0400e000aa0300006f
:020000040000fa
:0400e400aa0300006b
:020000040000fa
:0400e800aa03000067
:020000040000fa
:0400ec00aa03000063
:020000040000fa
:0400f000aa0300005f
:020000040000fa
:0400f400aa0300005b
:020000040000fa
:0400f800aa03000057
:020000040000fa
:0400fc00aa03000053
:020000040000fa
:04010000aa0300004e
:020000040000fa
:04010400aa0300004a
:020000040000fa
:04010800aa03000046
:020000040000fa
:04010c00aa03000042
:020000040000fa
:04011000aa0300003e
:020000040000fa
:04011400aa0300003a
:020000040000fa
:04011800aa03000036
:020000040000fa
:04011c00aa03000032
:020000040000fa
:04012000aa0300002e
:020000040000fa
:04012400aa0300002a
:020000040000fa
:04012800aa03000026
:020000040000fa
:04012c00aa03000022
:020000040000fa
:04013000aa0300001e
:020000040000fa
:04013400aa0300001a
:020000040000fa
:04013800aa03000016
:020000040000fa
:04013c00aa03000012
:020000040000fa
:04014000aa0300000e
:020000040000fa
:04014400aa0300000a
:020000040000fa
:04014800aa03000006
:020000040000fa
:04014c00aa03000002
:020000040000fa
:04015000aa030000fe
:020000040000fa
:04015400aa030000fa
:020000040000fa
:04015800aa030000f6
:020000040000fa
:04015c00aa030000f2
:020000040000fa
:04016000aa030000ee
:020000040000fa
:04016400aa030000ea
:020000040000fa
:04016800aa030000e6
:020000040000fa
:04016c00aa030000e2
:020000040000fa
:04017000aa030000de
:020000040000fa
:04017400aa030000da
:020000040000fa
:04017800aa030000d6
:020000040000fa
:04017c00aa030000d2
:020000040000fa
:04018000aa030000ce
:020000040000fa
:04018400aa030000ca
:020000040000fa
:04018800aa030000c6
:020000040000fa
:04018c00aa030000c2
:020000040000fa
:04019000aa030000be
:020000040000fa
:04019400aa030000ba
:020000040000fa
:04019800aa030000b6
:020000040000fa
:04019c00aa030000b2
:020000040000fa
:0401a000aa030000ae
:020000040000fa
:0401a400aa030000aa
:020000040000fa
:0401a800aa030000a6
:020000040000fa
:0401ac00aa030000a2
:020000040000fa
:0401b000aa0300009e
:020000040000fa
:0401b400aa0300009a
:020000040000fa
:0401b800aa03000096
:020000040000fa
:0401bc00aa03000092
:020000040000fa
:0401c000aa0300008e
:020000040000fa
:0401c400aa0300008a
:020000040000fa
:0401c800aa03000086
:020000040000fa
:0401cc00aa03000082
:020000040000fa
:0401d000aa0300007e
:020000040000fa
:0401d400aa0300007a
:020000040000fa
:0401d800aa03000076
:020000040000fa
:0401dc00aa03000072
:020000040000fa
:0401e000aa0300006e
:020000040000fa
:0401e400aa0300006a
:020000040000fa
:0401e800aa03000066
:020000040000fa
:0401ec00aa03000062
:020000040000fa
:0401f000aa0300005e
:020000040000fa
:0401f400aa0300005a
:020000040000fa
:0401f800aa03000056
:020000040000fa
:0401fc00aa03000052
:020000040000fa
:10020000cf8020000eff27000e01880000000000b4
:10021000000020000000e000020032000001200089
:1002200020028800140007004c0107000000e000d5
:1002300003003a00e08320000100200002003700a4
:100240000000200001002000810f7000010032003a
:1002500014000700000020000000e000020032004f
:100260000000020000000000a207020000000000e1
:100270000040da000000fe004440a90020002000f9
:100280000000e00003003200100020009001880010
:100290004440a800000006008a1f78008b1f7800e9
:1002a00000000600a1028800800478000000eb0036
:1002b0001f003700e284440054a0b4009905ba003e
:1002c000e284440054a0b4009906ba00e2844400d9
:1002d00054a0b4000006eb00476fde00fd07b2003b
:1002e000ae018800636ce10003003a00eaff0700fa
:1002f0000000eb000e003700606ce10008003a00df
:10030000004deb000a05e800020039003420ec0043
:100310000af0a0008b05e900f9ff3e000400370059
:100320006168e100010032000086eb000b0007006d
:1003300019c7ba001905ba000e04e00003003a001c
:100340000a00e000dbff3a0000000600fe07b200f2
:10035000ae0288008a047800f5ff37000cd0a300b5
:10036000e20f4d001c00390089027800354dba00bb
:100370000a05e800020039003420ec000af0a00071
:100380008b05e9000f003200254dba000a05e80090
:10039000020039003420ec000af0a0008b05e900cf
:1003a000080032000c00e0000600320015cdba0053
:1003b0000a05e800020039003420ec000af0a00031
:1003c0008b05e9008984e80054a0b4000b00e0002c
:1003d000e2ff3a00000006009902ba00055d7800cd
:1003e0008b05e900f7ff3200c82ade00055d7800c2
:1003f0008b05e900f3ff32000c00e000f1ff320052
:1004000019ddba00eeff3700809fbe000000fa0041
:10041000003580004200de006140600000c0ea005c
:10042000614060000080fb00610060004200dd0070
:10043000013580000120a100010070000035880016
:1004400088e0a9000080fa004f00be0000400600ce
:10045000801f78000000fa0010c0b3000ae8b7005f
:100460008860a90098e0a900a021ef009421ef0086
:100470009021ef009621ef000080fa004f007800f5
:10048000004006003600f800809fbe00829fbe003c
:10049000849fbe00869fbe003200f8003400f80042
:1004a00010002000a00188001000200090018800aa
:1004b0000000fa0050048000680060000000e000c6
:1004c0009800320000c8bf00e44f500095003e0085
:1004d00000c8bf000004e00005003200800c80006e
:1004e00020408800750107007001070084010700a3
:1004f00000c8bf000080fb00e20f50002100320066
:10050000e20f500005003c000000e000080032004f
:10051000e10f50000c00320082003700e30f500062
:1005200027003200e40f5000320032007d00370017
:10053000620107007201070010c0b30000e8b700b5
:100540000168ef007700370021408000900820000c
:10055000808f50000400360021408000c008200039
:10056000808f500004003600690107004f0107002a
:100570000068ef006b00370020c0b30000e8b70050
:10058000680037002140800040042000808f500028
:10059000040036002140800070042000808f50004d
:1005a000040036005a010700400107000068ef0010
:1005b0005c00370030c0b30000e8b70059003700d6
:1005c00020408000e60f50000300360020408000ed
:1005d000e90f5000040036004d0107003301070009
:1005e0000068ef004f00370040c0b30000e8b700dc
:1005f0004c0037002140800000022000808f500016
:1006000003003e0020408000e60f500004003e0042
:100610003f010700250107000068ef004100370097
:1006200020408000ef0f50001400360001c8bf00ca
:100630000080fb007f01100010002000010020005e
:100640000002be00020378000603e9000300330045
:100650000402420085824a00fbff37000401be000d
:1006600030408000414080000000710081807100b6
:1006700030408800414088001e00370001c8bf009c
:100680000080fb007f01100010002000010020000e
:10069000820178008301e90003003300000040007c
:1006a00081804800fbff37000081ea008181ea0079
:1006b0003040800041408000020278000301780051
:1006c00080017800010078000302620000006100f0
:1006d0008000eb00c000dd00000020000001be0033
:1006e0006120b800000171008181710032408800f2
:1006f0004340880001c8bf000040e80001e8b7009f
:1007000001c8bf00ff4f50000300360010c0b30007
:1007100002e8b7000300370030c0b30000e8b700bc
:10072000000000008a60a900ac06a9008800a900aa
:100730000080fa003400f9003200f9004f03be00d7
:100740004f02be004f01be004f00be003600f90050
:10075000004006000040da000000fe000000050036
:100760000001be001b0007000470a70003f0a100f9
:1007700003f8a30013003a006509b100100032002d
:10078000090035006928e100020035000100280059
:100790000000050000004000818048008502e9005b
:1007a000fcff3a0000000600f88f4200050035000b
:1007b0008100d1000080d3008502e800fcff3a00f0
:1007c000000006008000eb00000005006011b8008a
:1007d00049003700c70ade00f107b200f50fb2008a
:1007e00008003200e1cf4200020032000170a00098
:1007f00024000500810f700001003200040805008c
:1008000044000500810f700002003a00140005004a
:100810008502e9000000400081c04800fcff3b0069
:100820000170a00024000500889fbe008a9fbe00c2
:100830008c1f7800850007008c00330003866c0055
:100840006450e100240032006420e10027003200ff
:100850006150e100220032006120e10021003200fd
:100860008b854200eb07b1000134b800003ab800b4
:100870000804420089844a00013ab8000030b800f8
:100880008880400009014a00040033000000400055
:1008900081804800020149008b05e900c909dd009b
:1008a000830170000100320013002000c814de0034
:1008b0004814dd004709de001200b200c808de005f
:1008c000088470003b00070001f0a1000cf0a700b5
:1008d00001f0a0006e0037006120e10070003200de
:1008e0000801be000200be00f7ff37006150e100c2
:1008f000fcff3a006a003700889fbe008a9fbe0056
:10090000008270000402710004827100260032002f
:100910000004be000200be006011b8006b09200098
:10092000950220000182cf000a0039000541b10084
:100930000082cf00070039000541b1000982cf00d5
:10094000040039000541b1000882cf0001003900e0
:100950000541b10005425200120032000a003b007e
:1009600082817100610164008100d1000080d300a8
:100970008984d3000884d3008b05e8000442e80092
:10098000f7ff3a00070037000804440089844c0050
:1009900000004800818048008b05e9000442e9001e
:1009a000f9ff3a00030007004f05be004f04be00e8
:1009b0000000060081002000618055000b003d0012
:1009c0000b00200061fe2f000100e1001d0034003b
:1009d00082817100610164008904d1000884d30020
:1009e0000000e800faff3a00710020006100640096
:1009f000030070000200600009003200610444003e
:100a0000e0844c000988a500050032008b05e80051
:100a10006808e10002003a008904d1000884d3008c
:100a2000f20f20000258e10005003d00c75ddd0027
:100a3000f907b20089807500080078000000060000
:100a40000bf827008b007800000005000004be00b2
:100a500060ff07000003be000405be000200be00e8
:100a60005cff0700844f7500000006000200be0016
:100a70006450e100050036006420e1000200360009
:100a80000968a30001003a000800be000160a00050
:100a90004f0678004f05be004f04be000000060060
:0c0aa000f0ff2f00f1ff2700f9ff3700e6
:020000040000fa
:100aac000000fa009021ef000080fa000000060020
:100abc000000fa0095e1a900a10c800000032000c1
:100acc0001007000a00c88009421a90080d02300a4
:100adc00900c880041058000f0ff28000080600029
:100aec0000c0a000400588008860a9000080fa00c2
:100afc00000006000000fa0095e1a8000080fa0052
:100b0c00000006000000fa0095e1a9000080fa0040
:100b1c00000006000000fa00f6ff070000000000cd
:100b2c0040048000680060000000e000fcff320020
:100b3c008860a900f3ff07000080fa00000006009f
:100b4c000000fa00aa06a900a806a900ac06a90094
:100b5c005fe6a9009a60a9008a60a9000080fa00eb
:100b6c00000006000000fa00aa06a800a806a800cb
:100b7c00ac06a9005fe6a8009a60a8008a60a900ec
:100b8c000080fa00000006000000fa00413a8000e4
:100b9c00f0ff230000806000403a880000c0eb00aa
:100bac004ae7b700313a8000f0f02f000080600077
:100bbc00303a8800513a8000f00f2e00008060001f
:100bcc0000c0a000503a8800313a8000f0cf2f00ce
:100bdc0000806000303a8800413a800030f82f00e5
:100bec0000806000403a880047e7a8000080fa00c7
:100bfc00000006000200fa007e86a9004607a90044
:100c0c0000402000603a88004627a8000000eb0056
:100c1c00000f780002003700000000001e0fe800f3
:100c2c00703e20009e007800808f5000faff360046
:100c3c004627a9000000eb00000f780002003700e7
:100c4c00000000001e0fe800703e20009e0078009f
:100c5c00808f5000faff360000000000303a800010
:100c6c00610060000000e000fcff32009038800062
:100c7c000080fa00000006000200fa00000f780065
:100c8c009421ef001e007800900c88004105800034
:100c9c00f0ff28000080600000c0a0004005880024
:100cac008860a9009860a8000a68ef00a046a90017
:100cbc0000002800a00c8800000000000ac8bf003b
:100ccc000004e000fdff32000080fa000000060086
:100cdc000200fa00000f7800a046a90095e1a900d7
:100cec001e007800900c880041058000f0ff280061
:100cfc000080600000c0a000400588008860a9004a
:100d0c009860a8000a68ef0070062000e00c8800cc
:100d1c0051058000f0ff28000080600000c0a0009a
:100d2c005005880088e0a90098e0a800a021a9003f
:100d3c0000002800a00c880000002800000d88008e
:100d4c00000000000ac8bf000004e000fdff3200f4
:100d5c000080fa00000006000a00fa003007980034
:100d6c00410798000000eb00000f78003e00900057
:100d7c008000eb0010079800210798001e009000df
:100d8c00ae009000c001dd00020020004e0090007b
:100d9c008000eb000000710081807100100798004a
:100dac0021079800430037001e0078000000e00087
:100dbc0003003a00f0c92800c5ff07003c003700cb
:100dcc001e007800e10f500003003a00f06424008c
:100ddc00a9ff0700360037001e007800e20f500014
:100dec0003003a00f0c32900b9ff070030003700b8
:100dfc00300220009e007800808f500003003a00e3
:100e0c00508d2000b2ff0700290037001e01900012
:100e1c00ae019000100020000100200002027800ba
:100e2c000301780080017800010078000302620061
:100e3c00000061008000eb00c000dd00000020001d
:100e4c000001be006120b8000001710081817100b9
:100e5c00e00f5100e08f59000b003a00508d20003c
:100e6c009bff0700508d200083ff07001e009000a1
:100e7c00ae0090008100d1000080d30010079800d4
:100e8c00210798000a003700508d200090ff0700c2
:100e9c00a01a210078ff07001e009000ae00900001
:100eac008100d1000080d300100798002107980022
:100ebc001e0fe800300220009e007800808f50004a
:100ecc00b9ff34000080fa00000006000600fa00aa
:100edc001bff070047ff0700000f78001e0078007b
:100eec008000eb0036fe070082732600c309240045
:100efc004afe070017fe0700100798009e0090009e
:100f0c00c0632f0080804000905820000008b8007b
:100f1c004208de0020079800ae0090001e009000f2
:100f2c008dff070000202100a107200042000700d0
:100f3c000080fa00000006000200fa006226ef00b2
:100f4c00b0ff2f00f0348800813c8000f00f2c00a3
:100f5c0000806000803c88006a26ef00a626ef0027
:100f6c00d3fe0700fffe070007ff0700a0c6a8007e
:100f7c00a046a9000068ef00100037001e007800a2
:100f8c0000407800614060000080fb006100600060
:100f9c00213380000100a100010070002033880083
:100fac000135800000042000008060000000e0009b
:100fbc0002003a00c5ff0700eafe070002c8bf00a6
:100fcc000004e000edff32000168ef0050c0b300f8
:100fdc0000e8b7003040800041408000b286240019
:100fec0053fd2000820f5000838f58000800320000
:100ffc008267250043232100820f5000838f580005
:10100c0005003a00b1ff0700d6fe070002003700ca
:10101c001e8fea00000000000628ef000828ef00f1
:10102c000268ef000428ef0000902000d10320009c
:08103c0001000700cfff37009f
:020000040000fa
:10104400f03fb1000180b10006003500ee03090055
:1010540000000000403fb1000180b100fbff3d00f3
:101064001000b000203fb0000200350000800900ed
:0810740000000000000006006e
:020000040000fa
:10107c00000800000c0000008000000000000000d0
:020000040000fa
:020000040015e5
:047e3000faffff0056
:020000040000fa
:020000040015e5
:047e3800feffff004a
:020000040000fa
:020000040015e5
:047e40009fffff00a1
:020000040000fa
:020000040015e5
:047e5000deffff0052
:00000001FF
